:020000040000fa
:080000000002040000000000f2
:020000040000fa
:100400008f422300007f24000001880000000000cc
:100410000c000700e0d12c000100200011000700b3
:10042000000020000000e000020032000000020096
:10043000000000006eaa0200000000000040da0088
:100440000000fe004440a900206e20000000e000f3
:100450000300320000002000a00188004440a800f2
:100460000000060091018800800078000000eb0089
:1004700015003700e280400032a0b4009101ba00bc
:10048000e280400032a0b4009102ba00e280400055
:1004900032a0b4000002eb00472bde00f507b200eb
:1004a000602ce10004003a000059eb008301e900f0
:1004b000fdff3e00040037006128e100010032002a
:1004c0000082eb00040007001101ba000200e00006
:1004d000e8ff3a00000006003159ba008301e90044
:1004e0000c0032002159ba008301e90008003200f3
:1004f0000400e00003003a00e280400032a0b400b3
:10050000f5ff370011d9ba008301e900faff3a007c
:100510008100e800e180400032a0b4000000060045
:10052000c205040001000000c6aa0400000000008b
:100530009a950400000000008c9404000000000064
:10054000ac94040000000000a89504000000000026
:10055000b495040000000000c294040000000000f4
:100560008e95040000000000eaa5040000000000d1
:1005700046a204000000000056a404000000000091
:10058000aea0040000000000349f04000000000042
:1005900090a204000000000070a30400000000000e
:1005a000fe9f04000000000038a5040000000000c9
:1005b000a2a6040000000000f2e504000000000014
:1005c000a0e60400000000008ce70400000000002a
:1005d000f2e70400000000000ce804000000000046
:1005e00024e8040000000000e4e80400000000002b
:1005f0006213040001000000b4ad0400000000001c
:10060000d8b204000000000062af04000000000047
:10061000c80b040001000000466d0400000000004b
:100620002e1804000100000044180400010000001e
:100630006a180400010000008c180400010000008a
:100640004000040001000000da0004000100000086
:10065000180104000100000058010400010000001e
:10066000fc0104000100000092d904000000000019
:1006700040050400000000003200f80091018800ed
:10068000023b88000008bb000500fc00510520006b
:10069000313b8800a10a2000313b880061e7a800b7
:1006a00000000000000000003200f9000000060019
:1006b0000400a100010037000400a0003200f8008f
:1006c0009101880011002400013b8800f10f2000f7
:1006d0003208bb000400a700b20078000198bb00fc
:1006e0008301e900faff3a00680151000400a70005
:1006f00068015100680050001208bb00e2ff37009b
:10070000f30f20003200f80091018800310024002e
:10071000013b88000208bb000388bb00daff3700fa
:100720003200f800003b8800d7ff37008001eb0063
:1007300002003700817178008301e800828f510048
:10074000fcff3a0000000600889fbe000004be00c7
:10075000104981000000e0000100320000000100ab
:100760000800e00001003a00084981000800be00ce
:100770002a020700000444001804e00004003a00c4
:1007800040922200004989000004eb000700370076
:100790000800be0033020700000044001004e0001f
:1007a000010032000058eb00004989000800780081
:1007b0004f04be00000006008001780000017800b0
:1007c00031407800005978000004e000fcff3a0056
:1007d0000300780000000600800078000100370068
:1007e0000000e8001004e000fdff3a0001005000a6
:1007f0000000060080017800000178000100370049
:100800000201e8001204e000fdff3a000200370098
:100810000201e8008100e8001140780000497800fa
:100820000004e000faff3a00030078000000060030
:10083000ec874700889fbe008a9fbe008c9fbe0049
:100840008e1f7800f0b79f0081bf9f008204780060
:1008500000047800010037000804e8001847780019
:100860000e00fb00110207000000e000faff3a0052
:10087000d0c2b300804f57000500320000c0e9002d
:10088000804f570002003200004778000100370017
:100890000804e8000900e00045003500e18f54003d
:1008a0004300320040022000808f540040003c0092
:1008b0000900e0000e003400f08f54001a003a00e6
:1008c00000c3b300984f100016003a009840900003
:1008d00080c7b30080cf50000300320080c5b30052
:1008e00080cf50000f003a000884e8000e00370067
:1008f000a900200000c3b300984f10000a003a007e
:100900009840900080c7b30080cf500004003200b0
:100910008900200080c5b30080cf500002003a005b
:100920000884e800090120000805780000c3b3002e
:10093000010037000a05e8009a4f1000fdff320061
:100940008a0578006066b8000e003700f069220062
:1009500000425200c4ef9f006149b9000c00be0084
:100960004c0607004fea97000401fb00cf91de0020
:100970008b05e800ccb79f00ddb79f000006410063
:10098000818649001b00fb00d00107008000780031
:1009900009017800f0692200d30107000002780005
:1009a0000000e000e9ff3a008b0f540006003a0017
:1009b0000fb897000000e00029003200ffb0970058
:1009c00001087800260037008a805500a0672200c1
:1009d00060c07c000000fb00008050001600330067
:1009e0004240a9000f003c004fe997000200fb00c5
:1009f000cf80de000000560081805e00800f560030
:100a0000818f5e00070039006149b9004c0607007c
:100a10004fb19700dfb19700820f5000838f5800cd
:100a20000500320020022000304789000086eb00dc
:100a30008086eb0005003700d0c2b300804f57001e
:100a400002003a0060061600e0861e008fb997008b
:100a50000300e000030032008b097800010037003a
:100a60006066b8000c00be004f0778004f06be005d
:100a70004f05be004f04be00cf00b10000000600cd
:100a8000881f7800020478009a00070008004000e0
:100a90004f047800000006000000fa00881f78006c
:100aa000000478003fb99700ea8157008000780081
:100ab000005420009c010700800078000000e00046
:100ac000020035000040eb0000f4780001007800df
:100ad0004f0478000080fa0000000600881f7800ac
:100ae000404581000000e0000100320000000100ec
:100af000104581000000e00001003200000001000c
:100b0000b02881000000e000010032000000010078
:100b1000802881000000e000010032000000010098
:100b2000a08a22001004e00026003a00204581003f
:100b3000314581000004eb00d260260093012000c3
:100b4000d4050700f2352f00e3c623000000410062
:100b5000818049000804e800e80f5400f6ff3a00dd
:100b6000204589003145890088512200d260260045
:100b7000930120002045810031458100c505070013
:100b8000f2352f00e3c623000000410081804900b8
:100b90002045890031458900009cbe008059220013
:100ba000800f5400f1ff3a00a02c8100b12c81008d
:100bb00090288900a128890011c0b300a08a2200d2
:100bc00001487800d2602600930120002045810072
:100bd00031458100af050700f2352f00e3c6230041
:100be000000041008180490020458900314589008d
:100bf00022512200120178007f0161004211dd00c4
:100c000083512200030141001202be009428890092
:100c1000a52889000089be0090288100a1288100b4
:100c20004008de0000f0a1004f047800000006003c
:100c3000881f780000047800404581000000e00033
:100c40000100320000000100a08a22000048eb00f1
:100c5000104581000000e0000100320000000100aa
:100c60006140b80020458900314589004f04780073
:100c7000000006008001eb0008003700e342780026
:100c800063c278008301e80084cf52000300320081
:100c90000080eb000400390010000500828f510035
:100ca000f6ff3a000000eb000000060004003700e9
:100cb0000204e0000a0032000000e8008100e800c1
:100cc00010417800914f5100f9ff32000081eb0094
:100cd00010407800914f50000400390002003700a6
:100ce0000001eb0001003700120020000200780034
:100cf000000006008001eb000200370061f079007f
:100d00008301e800828f5100fcff3a0000000600da
:100d1000040037000204e00001003a000000050072
:100d20000000e80010417800814f5100f9ff3a00bf
:100d300000000600889fbe008104780011447800fe
:100d40000804e00009003a000c0037008001780038
:100d500009017800d24078000104e0000700320069
:100d6000d3cf1000fbff32000000e8008800fb003a
:100d7000e7ff07000000e000f4ff3a004f04be0068
:100d800000000600800178008002eb0001003700bf
:100d90008459780005035100828f52000900320007
:100da00065c278008502e8000404e000f8ff3a001c
:100db00083007800068141008058eb00828f50004c
:100dc000fdff3a00000006000000e00031003200a4
:100dd0008080e90091027800e38f52002d003600f8
:100de0000508a3002b003a00924681000200e000b3
:100df00002003200828f50000400310002087800a7
:100e00009146890016003700030178009201900096
:100e10000300e00002003200818f5100faff390028
:100e20001202780004004100808f50001900390040
:100e3000810f500003003a0005094200820078004b
:100e4000070037000300e000030032000580400087
:100e5000808f51000f003900930098001101980015
:100e6000110190000200e0000a00320011804000f1
:100e7000820f500007003a00008d22000008eb00ae
:100e800011009000110178009008410010009000be
:100e90009000980000000600889fbe00e304400018
:100ea0000900a100808f54004a003600e38f5400ef
:100eb00001003e0049002000824681000200e0005f
:100ec00002003200820078000c003700218d2200e1
:100ed00003003700908f5400230036008080e80024
:100ee000110078000000e000faff3a000f00370020
:100ef000908f54001c0036008080e80011007800bc
:100f00000000e000faff3a0012017800218d220073
:100f100003003700908f5400130036008080e800f3
:100f200011007800820f5000faff3a0078468100e5
:100f3000890f54000100310009047800080078008e
:100f4000320107000000e00004003a00890f54005d
:100f5000200032000804d100f5ff3700081878009f
:100f600099ff0700d4ff3700110178009201780043
:100f700064805100890f500003003100120090007e
:100f800080087800070037000900410080087800d9
:100f9000920190001300980011007800128814004c
:100fa00009097800910078000100e0000500320096
:100fb000110090000000e000020032000180e80013
:100fc000010037000000eb00804689000280e80045
:100fd000010037000000eb004f04be0000000600d7
:100fe000881f78008a9fbe000185b9000a0078003a
:100ff000a9ff0700000478000000e00003003200b1
:101000000a0178008000eb00c8fd070008007800a6
:101010004f05be004f047800000006000002780073
:101020000b00370001017800924178000304e000d2
:1010300002003a00040050000000060083cf520076
:10104000020032000201e800f7ff37000000e8006c
:10105000904278000504e000f2ff3a0004005000de
:1010600000000600000278000700370083cf52001e
:101070000a0032000201e800924178000304e00017
:10108000faff3a000000e800904278000504e00012
:101090000400320001017800f7ff3700040050001f
:1010a0000000060004005000000006006900e10096
:1010b000040035006d00e100030034000002b100bf
:1010c00001003200000005001000050080007800db
:1010d0001104b100030035009101b10001003c0092
:1010e0000050a000000006008001eb000400370063
:1010f0008301e80090cf1000040032000000e800f7
:10110000828f5100faff3a000000eb000000060059
:10111000204781000000e0000100320000000100d3
:10112000608e2200000006006200fa00889fbe0068
:101130008a9fbe000004be0002057800830078008c
:1011400060f92f000f004000b700070088979f004c
:1011500099979f000000eb00a09f9f009a457800a0
:101160000b80fb000000ea00cf04de0050c2b30099
:1011700080cf5500020032000904780001003700da
:101180000904e9000800e0000b0034001f909700fc
:10119000080178008a0078008f9197000300010011
:1011a00090979f000000e000930032002f98970076
:1011b00000004400a09f9f000905450050c2b300f5
:1011c00080cf5500040032000b04e000e3ff3a003a
:1011d0002f989700890037000000eb00809f9f0048
:1011e000f0979f00e0979f00d0979f00c0979f00c7
:1011f000b0979f00c09f9f000900370080872200a2
:101200000080500000004000c1862200e10078000c
:101210004f98970001007000c09f9f000a05e800ea
:101220001a4478008800fb0080872200b8fe07007f
:10123000800078000000e000f0ff3a00a0c2b30098
:10124000804f54000e003a00bf8897000180e900eb
:10125000b08f9f0010007800b09f9f000000e0005a
:1012600005003d000000ea00b09f9f004f989700e6
:101270000020a000c09f9f000a05e8001000370072
:10128000b19f9f0003fd2f00f4ff270008003700e7
:101290003f989700840f5000040032006a00b900a4
:1012a0000000410003004000b09f9f000a05e800d5
:1012b0001a01fb0003004100e90f5000f4ff360063
:1012c000e0c2b3009a4f1000040032000080eb002f
:1012d000909f9f008a0478001c0037008a04e80071
:1012e000a0c2b300994f100007003a00bf889700d2
:1012f0000180e900b08f9f0010007800909f9f0050
:101300008a84e800110037000000eb00909f9f00e6
:1013100003fd2f00f4ff2700080037001f989700f7
:10132000840f5000040032006a00b9000000410040
:1013300003004000909f9f008904e8001901fb0012
:1013400003004100e90f5000f4ff36001944780013
:101350008800fb00408b22006dfe07000000e000cb
:1013600002003a0000447800010037008904e800d8
:10137000a87f9f0080c6b300804f540004003a004d
:10138000994f14000a003a006640500006003700ea
:10139000c0c6b300804f540005003a00994f1400b6
:1013a00003003a0065404000a07f9f008904e800e8
:1013b0000905e800cbfb2f008f8545001901fb00d4
:1013c00060f92f000f0040000084e8008b017800d6
:1013d0008000780008007800180007000000e00096
:1013e00005003a008b0078000800780056010700dd
:1013f0000000e00059ff3d000080eb004f05be00fb
:101400004f04be000080fa00000006000000e0006b
:1014100003003400a5030700e10f400001003a007b
:101420000000eb00000006000200fa00f1bf9f0080
:10143000010878000080fa0000000600889fbe00c6
:101440008a1f780000047800010278008244780046
:1014500003057800e0c6b300804f5100d20032008f
:1014600015003c006b405000804f510024003200ba
:101470000a003c0070405000804f51000f013200c4
:1014800065404000804f51007400320050c2b300ec
:10149000804f510020013a001c01370040c6b300c4
:1014a000804f51001b00320065404000804f5100ca
:1014b00019013a001700370030c7b300804f5100c0
:1014c000fe00320007003c0064405000804f510095
:1014d000620032000040e800804f51000e013a00e7
:1014e000e700370050c7b300804f51005b00320067
:1014f00063404000804f510007013a005700370019
:101500009180e900010a78007800900091717800dc
:1015100007013700a8609000c0c6b30080cf50001c
:101520000a003a009400780064805000000a7800b5
:101530001000be004f89de00cf91de000002be0029
:1015400002037800820378001300370010c7b3004d
:1015500080cf500003003200a0c6b30080cf5000ff
:1015600006003a009400780068805000000a780075
:101570003002be002003be00070037001480e900df
:10158000000a78001000780000027800cfa2de0088
:101590000503780086037800049cbe000694be0014
:1015a000a860900080c6b30080cf50000e003200cb
:1015b00020c6b30080cf500005003a000400fb00b5
:1015c000cf80de0001017800820178000a00370038
:1015d00040c7b30080cf5000030032006640400097
:1015e00080cf500006003a0004007800cf80de0073
:1015f0000101780082017800009cbe000294be00c8
:101600003800be002801be00e00f5000e08f5800f7
:10161000e00f5900e08f590003003d007800900072
:10162000d1c2b3000a003700081090000018a300d0
:101630000300320078009000b1c2b300040037000c
:101640000008a300530032007800900001c2b300ec
:10165000017578000000e8004d003700a860900098
:10166000c0c6b30080cf500006003a009400780056
:1016700064805000000a78001002be006033b80099
:101680001300370010c7b30080cf500003003200b2
:10169000a0c6b30080cf500006003a009400780046
:1016a00068805000000a78003002be002003be00af
:1016b000070037001480e900000a78001000780065
:1016c000000278000500200006002000070020002e
:1016d000049cbe000694be00a860900080c6b300c3
:1016e00080cf50000e00320020c6b30080cf5000e3
:1016f00005003a000480fb000100200002002000e9
:10170000030020000a00370040c7b30080cf50001c
:10171000030032006640400080cf500006003a00cf
:1017200004007800010020000200200003002000d7
:10173000009cbe000294be00081090000038a30078
:10174000140032003800be002801be00e00f500037
:10175000e08f5800e00f5900e08f59000d00320073
:1017600080c7b30080cf54000300320080c5b300af
:1017700080cf540007003a007800900001c3b30006
:10178000017578008000e80009f578000080e80025
:1017900070049800780090000000450060049800f4
:1017a0008940780042003700a8609000c0c6b300ae
:1017b00080cf5000250032000a003c0064405000f9
:1017c00080cf50002800320000c0e80080cf5000d9
:1017d000140032006840500080cf500022003a00d0
:1017e0000a00370040c7b30080cf50001e0032000f
:1017f0006640400080cf50001b003200694050001e
:1018000080cf500018003a00060037001480e9002d
:10181000000a780010007800485c900008487800c2
:10182000450037001480e900000a780010027800b3
:1018300068089000cf80de00010178008201780006
:10184000009abe000292be003b0037001480e900ff
:10185000000a78001001780068089000cf80de0050
:101860000089be00340037001480e900000a7800c7
:1018700010007800680c9000080878002e003700ef
:101880001180e9008008780010007800cf80de0029
:101890000101780082017800009cbe000294be0025
:1018a00078009000000045006004980081c7b300f4
:1018b00008007800ee0007001f0037001480e900e0
:1018c000000a780010007800600498005809900021
:1018d0000200e00002003d00bffb070009003700e6
:1018e0008000eb0000fe0700800078000000e000b0
:1018f00003003200680090000080500001003700b3
:1019000058089000100c98000b00370078009000e9
:1019100002757800060037007800900080004500ce
:101920000904e00001003a0059c2b3008948780078
:101930000000e800700498000000eb004f057800fc
:101940004f04be00000006000400fa00889fbe009d
:101950008a9fbe008c1f7800000478000106780082
:1019600070089000f8009000010050008808900076
:10197000010050009808900001005000a808900055
:1019800001005000b808900001005000c808900005
:10199000810550000002220090bf9f000003230039
:1019a000a0bf9f00081090000028a30018003a0074
:1019b0000b00e000160034008b0478000905780065
:1019c000e28f5400020036002a0020000200370097
:1019d0000900e0000b00340058009000c80190009e
:1019e0000a017800ee8057000300010050049800bf
:1019f0000000e000960032006808900000004500fa
:101a0000600c98008a8454004240a900ebff3c001f
:101a1000780190000200e0000b00340058009000b4
:101a2000c80190008c007800030001005004980069
:101a30000000e0008600320068089000f800900086
:101a400001004000600c9800880c90000900e00044
:101a50001500340009057800e28f540002003600ba
:101a60002a002000020037000900e0000b003400cb
:101a700058009000c80190000a017800ec805700df
:101a800003000100500498000000e00070003200e4
:101a90006808900000004500600c98008a8454009b
:101aa0004240a900ebff3c00180990000200e00052
:101ab0000b003400e800900058009000c80190002e
:101ac00003000100500498000000e00060003200b4
:101ad000680890009808900001004000600c980091
:101ae000a80c90000900e0001500340009057800fa
:101af000e28f5400020036002a0020000200370066
:101b00000900e0000b00340058009000c80190006c
:101b10000a017800ec80570003000100500498008f
:101b20000000e0004a003200680890000000450014
:101b3000600c98008a8454004240a900ebff3c00ee
:101b4000380990000200e0000d003400e800900029
:101b5000180890008080400058009000c801900054
:101b600003000100500498000000e000380032003b
:101b700068089000b808900001004000600c9800d0
:101b8000c80c90000900e000150034000905780039
:101b9000e28f5400020036002a00200002003700c5
:101ba0000900e0000b00340058009000c8019000cc
:101bb0000a017800ec8057000300010050049800ef
:101bc0000000e0002200320068089000000045009c
:101bd000600c98008a8454004240a900ebff3c004e
:101be000081090000028a3001b0032000b00e0004a
:101bf000190034008b04780009057800e28f540046
:101c0000020036002a002000020037000900e00030
:101c10000b00340058009000c80190000a017800c1
:101c2000ee80570003000100500498000000e0001f
:101c3000070032006808900000004500600c980022
:101c40008a8454004240a90003003400eaff3700b0
:101c50000080eb00010037000000eb004f06780029
:101c60004f05be004f04be000080fa0000000600d1
:101c70002f03b000889fbe008a9fbe008c9fbe00cd
:101c80008e1f780000077800f07f2200c0b79f0009
:101c900080c5b30080cf500008003200e27e2200f1
:101ca000c2b79f007740400080cf500003003a0049
:101cb00083002000b3b79f000a00370080c7b3003d
:101cc00080cf500005003200a4002000b4b79f0070
:101cd00080c5b30080cf500002003a00050120000b
:101ce000b5b79f003e04be002e05be0040c6b3003f
:101cf00080cf5000030032006540400080cf50008c
:101d00000b003a00e00f5400e08f5c00e00f5d0034
:101d1000e08f5d0006003d006000b8006011b80073
:101d200008045000898458000a0559008b85590021
:101d3000bfb39700e88f530003003200f08f5300c9
:101d400045003a000200370036002000010037004d
:101d500046002000e00f5400e08f5c00e00f5d00c3
:101d6000e08f5d0005003a005e08900081012000d0
:101d7000a1b79f000000e000080032003fb19700cb
:101d80000200e90008006000cfb1970063407800ce
:101d900090df9f0074012000a4b79f0086027800a6
:101da0008502e900050033008b05d1000a85d300c8
:101db0008984d3000884d300f9ff3700089fbe0050
:101dc0000a97be00afb397000700e90021fc2f007f
:101dd0008f804000008240003fb197008202e900fe
:101de00012003700afb397008703e900a7b79f0041
:101df00000806200cfb09700615278003e00be00c4
:101e00002e01be00860378008703e9000500330039
:101e10008381d1000281d3008180d3000080d30070
:101e2000f9ff3700009fbe000297be003e00be00d3
:101e30002e01be00e00f5000e08f5800e00f590067
:101e4000e08f5900d6003400afb397000700e000e0
:101e5000e4ff3c00d2003700ae60900080c6b300c3
:101e600080cf50000b00320006003c000104e0006f
:101e7000080032006640500080cf500073003a00e6
:101e800004003700c0c6b30080cf50006f003a0096
:101e900031003700080178000800e00005003a0032
:101ea0005e08900081012000a1b79f000000e000c3
:101eb00009003200bfb19700110009000381d8006a
:101ec0008000fd004fb297006440780090df9f00d3
:101ed00075012000a5b79f00bfb39700110009004e
:101ee0000781d80080017800afb097000100e900b9
:101ef00022fc2f000f014100000241000c003700be
:101f0000bfb29700110009008501d80000017800d8
:101f1000afb397008703e900a7b79f000590b9000a
:101f200000805100cfb097006152780082017800a4
:101f30000300e000030034002fb197000200e0002e
:101f4000efff3c0003007800cf80de000101780045
:101f5000820178003a0037000806be00e00f540006
:101f6000e08f5c0005003a005e08900083012000cd
:101f7000a3b79f000000e000090032003fb29700c5
:101f80006121b9000c00be0054030700cfb29700d6
:101f90006540780090df9f0077012000a7b79f0081
:101fa0003fb297006121b9000c00be00e4000700b9
:101fb0000006be00afb297000500e90027fc2f0025
:101fc0008f8343008083430097b79f001100370041
:101fd0003fb197006114b9000801be000c00be00bb
:101fe000410307000005be00afb197008301e9007f
:101ff000a3b79f000801be00a6000700000056001e
:102000001fb29700cfb297006552780094b79f0037
:102010000a06be00e00f5600e08f5e0003003400a9
:10202000afb397000700e000e9ff3c004feade0095
:10203000cfa2de000c00be0004017800840178000d
:10204000009fbe000297be0055003700e00f54000d
:10205000e08f5c00e00f5d00e08f5d0005003a005e
:102060005e08900081012000a1b79f000000e00001
:102070000d0032003fb1970002027800cfa2de00cf
:1020800005037800860378000800be000a01be0040
:102090005a0207004fb297006440780090df9f001b
:1020a00075012000a5b79f003fb19700020278009c
:1020b000cfa2de0005037800860378000800be008a
:1020c0000a01be0046020700009fbe000297be0044
:1020d000afb197000300e90024fc2f000f0242007b
:1020e0000006420020003700bfb2970005047800c8
:1020f000cfc4de00090578008a0578000802be001a
:102100000a03be005fa89700efa897007fa9970079
:102110008fb197003d020700d0b79f00e1b79f0045
:10212000f2b79f0083bf9f00afb397008703e9001a
:10213000a7b79f000802be000a03be00b90207004d
:102140005faa970000005200cfb297006556780052
:102150005fb09700efb097007fb197008fb99700fd
:10216000009fbe000297be003e00be002e01be00d2
:10217000d0af9f00e1af9f00f2af9f0083b79f00f9
:10218000e00f5000e08f5800e00f5900e08f590039
:1021900003003400afb097000100e000d2ff3c0024
:1021a0003fb19700e80f510013003a000e10900065
:1021b0000038a30010003200afb19700f78f510034
:1021c00006003e0024fc2f000f0242008300420064
:1021d00000c3b300914f100007003200afb2970068
:1021e0008502e900a5b79f0000c3b30027fc2f00bc
:1021f0008f83430080f37a00afb19700788111009c
:10220000120f98006e00900024fc2f000f02420075
:1022100083004200b7fa07001e0990005e08900094
:10222000800f510006003d0002005000000f980092
:102230000e1090000040a100001798000f0037001a
:102240000000e0000d003d000e10900074006000e2
:10225000f00f500009003a007e089000fe00900048
:10226000010050008e089000010050000200500054
:102270004240a90001003400000f98004f07780089
:102280004f06be004f05be004f04be002f03b10035
:1022900000000600020ab900001bb9000200b800e5
:1022a000810042008100430000000600889fbe00bc
:1022b00080047800304981000000e00003003a000b
:1022c000100007000000e0000a00350030498100de
:1022d0000900e00002003a00000478000600370020
:1022e0000004780009004000060007000000e0003c
:1022f00001003d000084eb00080078004f04be00a0
:1023000000000600800078000000e00004003a00b1
:1023100080922200304989000101780006003700d0
:102320000081eb0080422300808f500002003e00bd
:10233000314989000001eb0002007800000006002e
:102340006022b800060220000000d0008180d20088
:102350000482d2008582d2000000a0000202520056
:1023600083825a00030031000202420083824a0045
:102370000000a1000603e900f3ff3a000000060098
:10238000889fbe008a9fbe008c1f780065020700f0
:102390006c02330003866c006450e1002e003200b2
:1023a0006420e100330032006150e1002f00320070
:1023b0006120e1003100320085855500eb07b00057
:1023c000090020000804200005003700080444002c
:1023d00089844c000a0031000603430087834b00c8
:1023e0000001530081815b00f8ff33000203be004f
:1023f0000800a0000804440089844c00f6ff39005e
:10240000c639dd0083017300010032001300200093
:102410008904d1000884d3000998a3000500320084
:102420000800a7000300a0008904d1000884d3009d
:102430008b05e8008904d1000884d3000001eb007b
:102440000281d2004f02070001f0a1000cf0a700aa
:1024500001f0a000440237006420e100460232008f
:102460000801be000200be00f7ff37006120e10056
:10247000410232006000b800f3ff37000000200086
:1024800001f82700f0ff3700f4ff2f006302370048
:102490000001be007c0207000470a70003f0a10049
:1024a00003f8a30013003a006509b10010003200e0
:1024b000090035006928e10002003500010028000c
:1024c0000000050000004000818048008502e9000e
:1024d000fcff3a0000000600f88f420005003500be
:1024e0008100d1000080d3008502e800fcff3a00a3
:1024f000000006008000eb0000000500889fbe0081
:102500008a9fbe00010578000100e000040035004c
:1025100008003c000000e000200032000500370009
:1025200060001000e080180002003b0001f02c0069
:102530001a0037000004be006011b8006b092000cb
:102540000982cf00020039000882cf000441b000a8
:10255000694252000e00320008003b008281710087
:10256000610164008904d1000884d3008b05e80070
:102570000442e800f9ff3a0005003700080444006f
:1025800089844c008b05e9000442e900fbff3a0016
:10259000fc0107000af0a70001f0a0004f05be00f3
:1025a0004f04be000000060003f0a200889fbe009a
:1025b0008a9fbe008c1f7800da010700e10133001a
:1025c0006450e1004f0032006420e100520032000c
:1025d00003826c0007003b000905d0000306d00011
:1025e000820f54000c065d00020039000200320028
:1025f00089017800030678008582550004003d00bb
:102600000003fd008103fd008502ea008b85420086
:10261000840f720002003b0060001000e080180090
:102620006011b8000005eb007a28e1000a003900cb
:1026300006007800c75ddd00f707b20087807500ef
:102640002d003700828171000a0178006105600069
:102650008180d1000080d3008502e900f9ff3b00b2
:10266000060440008784480002003b006004140018
:10267000e0841c000988a300070032008a817100f1
:1026800082817100610164008904d1000884d30053
:102690008b05e800170037000978a30013003a0003
:1026a0000b00e000130034008b05e900080444002f
:1026b00089844c000a4474000978a3000d003a0094
:1026c0000b00e000070034008b05e900080444001b
:1026d00089844c0001003a000b0020000978a30017
:1026e000f7ff32000001eb00020037008281710029
:1026f0000a017800a30107000cf0a70001f0a00078
:10270000990137006420e10002003a00838f6c00d9
:10271000990133000801be000200be00920137009b
:10272000889fbe008a9fbe008c1f78007d01070035
:102730008401330003866c006450e1002400320001
:102740006420e100270032006150e10022003200e5
:102750006120e100210032008b854200eb07b100cf
:102760000134b800003ab8000804420089844a00e5
:10277000013ab8000030b8008880400009014a00e2
:10278000040033000000400081804800020149003d
:102790008b05e900c909dd008301700001003200ea
:1027a00013002000c814de004814dd004709de00d5
:1027b0001200b200c808de00088470007101070032
:1027c00001f0a1000cf0a70001f0a00066013700a5
:1027d0006120e100680132000801be000200be0075
:1027e000f7ff37006150e100fcff3a00620137005b
:1027f0001400200089013700881f78000004780049
:102800005001be004000be0004004000858048002a
:102810000601490087814900009cbe000294be0069
:102820000400e1000588e1000690e1000798e1005e
:1028300002003100680044001008e8004f047800ee
:1028400000000600f4874700889fbe008a9fbe00f4
:102850008c9fbe008e1f78000205be000004be00e3
:10286000d4b79f00e5b79f00f6b79f0087bf9f00d2
:102870000000eb00c0b79f00b0b79f00a0b79f005b
:1028800090b79f0080b79f000d042000bfb0970055
:102890004fb09700000140000000e0000f003d0035
:1028a0004f08de0000007100c0b79f009e000700c7
:1028b00001003d0012002000a100070001003d00c2
:1028c00012002000a6000700b1000700b6000700b4
:1028d0000f004000c8ff0700220037004f08de004d
:1028e00000067100ccb79f008f00070001003d007b
:1028f000120020009200070001003d00120020009d
:1029000097000700a20007000fb297009fb2970040
:102910002fb39700bfb39700a90007000000520033
:1029200081805a0002015b0083815b0080b79f00b9
:1029300091b79f00a2b79f00b3b79f000007eb00bd
:102940009f0007000020e10001a8e10002b0e100c3
:1029500003b8e100010031001e0020000e00560007
:10296000c0b79f004fb297000400e0000700350099
:1029700010002000010020006011b8000804700061
:10298000898470000a0571008b8571008d06e9004d
:10299000beff3a000400e00003003d008200070093
:1029a0000f00400094ff07004fa897000000e000d0
:1029b00004003a000fb497009fb497002fb597001a
:1029c000bfb59700940007004f0778004f06be0080
:1029d0004f05be004f04be004f01b10000000600cd
:1029e000881f780018002000881f780095ff0700d6
:1029f0008f87e9004f04780000000600801feb007d
:102a000090ff07008f87e90000000600889fbe0046
:102a10008a9fbe008c1f78006e00070007003d00f3
:102a200073000700e00f5b00e08f5b0007003d00d4
:102a3000320007000006eb000400370034000700f6
:102a400002003d002a0007001c0020007200070061
:102a5000e3ff07000203be000002be000c00e0001e
:102a600001003200220007000400be000601be0083
:102a70004f0678004f05be004f04be000000060060
:102a8000889fbe008a9fbe008c1f780051000700ff
:102a900005003d0056000700e00f5b00e08f5b0083
:102aa00006003d00040037001900070003003d0048
:102ab0006000b8006011b800100007005600070061
:102ac000ceff07000203be000002be000c00e000c3
:102ad00001003200060007000400be000601be002f
:102ae0004f0678004f05be004f04be0000000600f0
:102af0006000b8006011b800000037000402500008
:102b0000858258000603590087835900000006009b
:102b10000006eb00e00f5200e08f5a00e00f5b0070
:102b2000e08f5b00000006000180400090b79f002e
:102b30000001eb008fb097000100e00000000600ec
:102b40000200700090b79f000180400080b79f0096
:102b50000001eb00ffa897000100e0000000060064
:102b60000200700080b79f00018040006faa9700ac
:102b7000cf20de0001007000f0af9f000402420091
:102b8000250007004f18de0000027200000006005a
:102b9000e4af9f000804440089844c000a054d00fe
:102ba0008b854d00000006003fb29700cfb2970022
:102bb0005fb39700efb3970000fe2f000000060000
:102bc0003fb09700cfb097005fb19700efb197008b
:102bd000000006000205be000004be00e00f500029
:102be000e08f5800e00f5900e08f59000000060008
:102bf0006000b8006011b8000804500089845800d3
:102c00000a0559008b8559001c002000e00f520076
:102c1000e08f5a00000006000800be000a01be0056
:102c200000000600889fbe008a9fbe008c1f7800af
:102c30000205be000004be000006eb00e00f5000dd
:102c4000e08f5800e00f5900e08f590007003d0069
:102c50006000b8006011b800080450008984580072
:102c60000a0559008b8559001c002000e00f520016
:102c7000e08f5a00e00f5b00e08f5b0002003d0038
:102c80000f0007000c00a2000800be000a01be00f1
:102c9000920007000203be000002be000c00e0002c
:102ca00001003200060007000400be000601be005d
:102cb0004f0678004f05be004f04be00000006001e
:102cc0006000b8006011b80004025000858258000e
:102cd00006035900878359000000060098fd07008d
:102ce0000400be0000000600839f68000100e000b1
:102cf00002003d0060001000e08018000300e000ca
:102d000002003d0060011100e08119008cfd070008
:102d10004f00e00002003b0060001000e08018005f
:102d2000000006000004be00570007000003be00bc
:102d30000405be000200be0053000700844f75006a
:102d4000000006000200be006450e10005003600ed
:102d50006420e100020036000968a30001003a0087
:102d60000800be000160a0004f0678004f05be00bd
:102d70004f04be0000000600f0ff2f00f1ff270007
:102d8000f9ff370081002000618055000b003d00f5
:102d90000b00200061fe2f000100e1001d00340047
:102da00082817100610164008904d1000884d3002c
:102db0000000e800faff3a007100200061006400a2
:102dc000030070000200600009003200610444004a
:102dd000e0844c000988a500050032008b05e8005e
:102de0006808e10002003a008904d1000884d30099
:102df000f20f20000258e10005003d00c75ddd0034
:102e0000f907b2008980750008007800000006000c
:102e10000bf827008b00780000000500889fbe009b
:102e20008a9fbe00841f7800beff07004f00780015
:102e300011003300f0ff2f00838f6c0006003b0071
:102e4000040565000a00a7000800370009f0a60085
:102e50001000200008003700820f5400838f5c00b0
:102e6000030039001000200001003e000000200097
:102e700009f0a7000000ea004f05be004f04be00a5
:102e80000000e00000000600c70ade00f107b20003
:102e9000f50fb20008003200e1cf4200020032001c
:102ea0000170a00024000500810f700001003200b5
:102eb0000408050044000500810f700002003a007c
:102ec000140005008502e9000000400081c04800b0
:102ed000fcff3b000170a00024000500889fbe009d
:102ee0008a9fbe008c9fbe000404b8000506b8008f
:102ef0008904460060854e000606b8000a054600b3
:102f0000e0854e000706b8008b054600040eb800a9
:102f1000890446000a854e00e0854d00050eb80084
:102f20000a0546008b854e00060eb8008b0546004c
:102f30000416b8000a0546008b854e000516b80039
:102f40008b054600041eb8008b0546000800be0035
:102f50000a01be004f06be004f05be004f04be0072
:042f60000000060067
:020000040000fa
:020000040005f5
:0457f800eefa0000c5
:020000040000fa
:020000040005f5
:0457fc007f3e0000ec
:020000040000fa
:10000800ca110100de110100f211010006120100ff
:100018001a120100ca110100ca110100ca11010017
:10002800ca110100ca110100ca110100100e010015
:10003800ca110100ca110100ca110100ca11010048
:10004800ca110100ca110100ca110100981101006a
:10005800ca11010094420000ca110100ca1101002e
:10006800ca110100ca110100ca110100ca11010018
:1000780030170100ca110100ca110100ca1101009c
:10008800ca110100ca110100ca110100ca110100f8
:100098009a0b01002e120100b8110100ca110100cb
:1000a800ca110100ca110100ca110100ca110100d8
:1000b800ca110100ca110100ca110100ca110100c8
:1000c800ca110100ca110100ca110100ca110100b8
:1000d800ca110100ca110100ca110100ca110100a8
:1000e800ca110100ca110100ca110100ca11010098
:1000f800ca110100561201007e120100ca11010046
:10010800ca110100ca110100ca110100ca11010077
:10011800ca110100ca110100ca110100ca11010067
:10012800ca110100ca110100ca110100ca11010057
:10013800ca110100ca110100ca110100ca11010047
:10014800ca110100ca110100ca110100ca11010037
:10015800ca110100ca110100ca110100ca11010027
:10016800ca110100ca110100be110100ca11010023
:10017800ca110100ca110100ca110100ca11010007
:10018800c4110100ca110100ca110100ca110100fd
:10019800ca110100ca110100ca110100ca110100e7
:1001a800ca110100ca110100ca110100ca110100d7
:1001b800ca110100ca110100ca110100ca110100c7
:1001c800ca110100ca110100ca110100ca110100b7
:1001d800ca110100ca110100ca110100ca110100a7
:1001e800ca110100ca110100ca110100ca11010097
:0801f800ca110100ca11010047
:020000040000fa
:10020800ca110100de110100f211010006120100fd
:100218001a120100ca110100ca110100ca11010015
:10022800ca110100ca110100ca110100100e010013
:10023800ca110100ca110100ca110100ca11010046
:10024800ca110100ca110100ca1101009811010068
:10025800ca11010094420000ca110100ca1101002c
:10026800ca110100ca110100ca110100ca11010016
:1002780030170100ca110100ca110100ca1101009a
:10028800ca110100ca110100ca110100ca110100f6
:100298009a0b01002e120100b8110100ca110100c9
:1002a800ca110100ca110100ca110100ca110100d6
:1002b800ca110100ca110100ca110100ca110100c6
:1002c800ca110100ca110100ca110100ca110100b6
:1002d800ca110100ca110100ca110100ca110100a6
:1002e800ca110100ca110100ca110100ca11010096
:1002f800ca110100561201007e120100ca11010044
:10030800ca110100ca110100ca110100ca11010075
:10031800ca110100ca110100ca110100ca11010065
:10032800ca110100ca110100ca110100ca11010055
:10033800ca110100ca110100ca110100ca11010045
:10034800ca110100ca110100ca110100ca11010035
:10035800ca110100ca110100ca110100ca11010025
:10036800ca110100ca110100be110100ca11010021
:10037800ca110100ca110100ca110100ca11010005
:10038800c4110100ca110100ca110100ca110100fb
:10039800ca110100ca110100ca110100ca110100e5
:1003a800ca110100ca110100ca110100ca110100d5
:1003b800ca110100ca110100ca110100ca110100c5
:1003c800ca110100ca110100ca110100ca110100b5
:1003d800ca110100ca110100ca110100ca110100a5
:1003e800ca110100ca110100ca110100ca11010095
:0803f800ca110100ca11010045
:020000040000fa
:102f64000102000003040000050600000708000039
:102f7400090a00000b530000657400002053000090
:102f840053490000440d00000a000000536500008e
:102f9400742000004e650000747700006f7200001a
:102fa4006b20000054790000706500000d0a0000d9
:102fb40000530000657400002053000063610000aa
:102fc4006e20000054790000706500000d0a0000b6
:102fd4000053000065740000204300006861000095
:102fe4006e6e0000656c0000204c000069730000e8
:102ff400740d00000a0000005365000074200000f6
:103004006c69000073740000207200006574000095
:1030140072790000206300006f7500006e74000078
:103024000d0a0000005300006574000020450000f4
:10303400766500006e740000204e00006f7400007e
:1030440069660000790d00000a0000004469000070
:1030540073610000626c00006520000050530000a2
:103064002d5000006f6c00006c0d00000a00000081
:10307400456e0000616200006c6500002050000095
:10308400532d0000506f00006c6c00000d0a00000e
:1030940000530000657400002042000065610000d8
:1030a400636f00006e200000546900006d6500002d
:1030b4006f750000740d00000a00000053650000e5
:1030c40074200000736500006375000072690000dd
:1030d400747900003a200000006f00007065000061
:1030e4006e0d00000a000000574500005034000037
:1030f400300d00000a000000574500005031000068
:10310400303400000d0a0000005700005041000058
:103114002077000069740000682000006b650000df
:10312400790d00000a000000575000004120000003
:10313400776900007468000020700000617300006b
:10314400732d000070680000726100007365000058
:103154002028000057410000524e0000494e000054
:10316400473a0000207400006865000020660000f3
:103174006c790000706f000072740000207700000a
:10318400696c00006c20000073700000656e000024
:1031940064200000616200006f750000742000006c
:1031a4003330000020730000656300006f6e000080
:1031b40064730000207400006f200000636100004d
:1031c4006c630000756c00006174000065200000f1
:1031d40074680000652000006b6500007929000018
:1031e4000d0a00000057000050410000322000008a
:1031f4007769000074680000206b000065790000a6
:103204000d0a000000570000504100003220000069
:10321400776900007468000020700000617300008a
:10322400732d000070680000726100007365000077
:103234002028000057410000524e0000494e000073
:10324400473a000020740000686500002066000012
:103254006c790000706f0000727400002077000029
:10326400696c00006c20000073700000656e000043
:1032740064200000616200006f750000742000008b
:103284003330000020730000656300006f6e00009f
:1032940064730000207400006f200000636100006c
:1032a4006c630000756c0000617400006520000010
:1032b40074680000652000006b6500007929000037
:1032c4000d0a00000057000050410000204100009a
:1032d400555400004f200000776900007468000016
:1032e400206b0000657900000d0a00000057000003
:1032f4005041000020410000555400004f200000c0
:103304007769000074680000207000006173000099
:10331400732d000070680000726100007365000086
:103324002028000057410000524e0000494e000082
:10333400473a000020740000686500002066000021
:103344006c790000706f0000727400002077000038
:10335400696c00006c20000073700000656e000052
:1033640064200000616200006f750000742000009a
:103374003330000020730000656300006f6e0000ae
:1033840064730000207400006f200000636100007b
:103394006c630000756c000061740000652000001f
:1033a40074680000652000006b6500007929000046
:1033b4000d0a0000005300007461000072740000e4
:1033c400205700006946000069200000436f000098
:1033d4006e6e000065630000740d00000a000000ba
:1033e40032400000213f00005e5e00005e7100007c
:1033f400593a00003140000000000000070c0000b2
:1034040011160000070c000011160000070c000044
:1034140011160000070c0000111600000509000039
:103424000e140000050900000e1400000509000038
:103434000e140000050900000e140000040b000027
:1034440010170000040b000010170000040b00000c
:1034540010170000040b000010170000060a0000fb
:103464000f150000060a00000f150000060a0000f0
:103474000f150000060a00000f15000078a40000d4
:103484006ad7000056b70000c7e80000db700000f0
:1034940020240000eece0000bdc10000af0f0000ec
:1034a4007cf500002ac60000874700001346000090
:1034b40030a800000195000046fd0000d8980000e7
:1034c40080690000aff70000448b0000b15b00008e
:1034d400ffff0000bed700005c890000221100003d
:1034e400906b00009371000098fd00008e43000073
:1034f40079a6000021080000b449000062250000fc
:103504001ef6000040b3000040c00000515a000005
:103514005e260000aac70000b6e900005d100000a6
:103524002fd60000531400004402000081e600007e
:10353400a1d80000c8fb0000d3e70000e6cd0000de
:10354400e1210000d607000037c30000870d00000a
:10355400d5f40000ed1400005a45000005e9000010
:10356400e3a90000f8a30000effc0000d90200006a
:103574006f6700008a4c00002a8d00004239000069
:10358400faff000081f6000071870000226100004c
:103594009d6d00000c380000e5fd000044ea0000c9
:1035a400bea40000a9cf0000de4b0000604b000069
:1035b400bbf6000070bc0000bfbe0000c67e000069
:1035c4009b280000fa270000a1ea000085300000d3
:1035d400efd40000051d00008804000039d000006d
:1035e400d4d90000e5990000dbe60000f87c000077
:1035f400a21f000065560000acc400004422000075
:1036040029f4000097ff00002a430000a7230000cc
:1036140094ab000039a0000093fc0000c3590000e3
:103624005b65000092cc00000c8f00007df400006c
:10363400efff0000d15d0000848500004f7e000094
:10364400a86f0000e0e600002cfe00001443000018
:1036540001a30000a1110000084e0000827e0000ba
:1036640053f7000035f200003abd0000bbd2000061
:10367400d72a000091d3000086eb000045760000b5
:10368400656e0000743a0000204300006f6e000075
:103694006e65000063740000696f00006e20000016
:1036a40053750000636300006573000073660000d7
:1036b400756c00000d0a00000045000076650000ee
:1036c4006e7400003a200000436f00006e6e00002c
:1036d40065630000746900006f6e000020460000fe
:1036e400616900006c65000064200000202d00006a
:1036f4002d20000065760000656e0000744900000e
:103704006e6600006f2000003d20000000250000d0
:10371400640d00000a00000045760000656e00009c
:10372400743a0000204300006f6e00006e650000d4
:1037340063740000696f00006e200000546500008f
:103744006d7000006f72000061720000696c00000f
:10375400792000004c6f000073740000202d0000dd
:103764002d20000065760000656e0000744900009d
:103774006e6600006f2000003d2000000045000040
:10378400766500006e7400003a200000436f00006c
:103794006e6e000065630000746900006f6e0000c7
:1037a400205200006565000073740000616200002f
:1037b4006c69000073680000656400000d0a000075
:1037c40000450000766500006e7400003a20000099
:1037d400436f00006e6e00006563000074690000b2
:1037e4006f6e000020500000657200006d610000e3
:1037f4006e6500006e7400006c790000204c0000bf
:103804006f730000742000002d2d0000206500005f
:10381400766500006e740000496e0000666f00005b
:10382400203d00002000000045760000656e000089
:10383400743a000020530000636100006e20000011
:1038440052650000737500006c7400007320000062
:103854005265000061640000792c0000002500001e
:103864006400000072650000737500006c74000051
:10387400730d00000a000000484500004c4f000092
:10388400204d000043480000504200004f4100001a
:10389400524400000d0a000000450000484c00009e
:1038a4004f2000004d43000048500000424f0000ec
:1038b40041520000440d00000a0000004155000080
:1038c40054480000204c00004f470000494e0000bf
:1038d4000d0a0000000d00000a0000004d41000028
:1038e400494c000020460000524f00004d3a0000b1
:1038f4003c0000003e0d00000a000000524300009e
:1039040050540000205400004f3a00003c000000d6
:1039140044410000544100000d0a0000004600002c
:10392400726f00006d3a0000200000000d0a0000d4
:10393400546f00003a200000000d00000a4300000c
:10394400433a0000200000000d0a000053750000f7
:10395400626a000065630000743a00002000000001
:103964000d0a00002e0d00000a0000000d0a0000e0
:103974002e00000051550000495400000d0a0000bb
:1039840000000000466c0000797000006f720000b7
:1039940074200000737400006172000074690000f8
:1039a4006e6700002e2e00002e000000544300001d
:1039b40050000000556e000065780000706500003e
:1039c4006374000065640000206500006e640000fc
:1039d400206f000066200000707200006f67000016
:1039e400726100006d2e00002e2e00000d0a0000f2
:1039f400004900006e69000074690000616c0000f9
:103a0400697a0000696e00006720000055440000d8
:103a1400502e00002e2e00000d0a0000004600006b
:103a24004c590000000d00000a4e000065770000ac
:103a3400204900005020000041640000647200002e
:103a440065730000733a0000200000000d0a0000b6
:103a540000000000574600002041000053530000be
:103a640045520000544900004f4e00003a20000027
:103a74004d6f0000647500006c650000204e00006e
:103a8400756d000062650000722000003d2000009a
:103a94000025000064200000200000004c690000a4
:103aa4006e650000204e0000756d00006265000028
:103ab400722000003d20000000250000640000008a
:103ac400000000002c010000c800000001000000fc
:103ad400c80000002c010000030000003c000000ae
:103ae4001e0000000400000032000000c8000000b6
:103af40008000000e8030000e803000008000000dc
:103b0400e8030000e803000009000000e8030000e7
:103b1400e8030000466c0000797000006f7200003a
:103b240074200000636f00006e6e00006563000087
:103b340074650000642e00002e2e00002068000032
:103b4400656c00006c6f0000207700006f7200004d
:103b54006c640000210d00000a0000001111000037
:103b64002222000033330000444400005555000075
:103b74006666000077770000888800009999000045
:103b8400aaaa0000bbbb0000cccc0000dddd000015
:103b9400eeee0000cecd0000acab00002e00000025
:103ba40000040000a30000000000000050490000d1
:103bb4004355000053320000444f000054320000cb
:103bc400004600006c790000706f00007274000001
:103bd4004e650000740000000d0a00004448000017
:103be400435000002f5000006f7700006572000002
:103bf40020650000766500006e740000206f0000f0
:103c040063630000757200007265000064000000c8
:103c14004f6e0000004f000066660000006900005f
:103c24006e660000726100000061000064680000bc
:103c34006f630000005400004350000000000000c7
:103c44002c280000290000002e000000256c000034
:103c54006900000070610000737600000d0a000026
:103c640000000000256400002e250000642e0000e2
:103c7400256400002e250000642500006300000078
:103c8400544900004d4900004e470000204f0000f9
:103c940055540000210d00000a000000040000003b
:103ca40010030000140300001803000000000000cb
:103cb400000000001c0300000a00000020030000b4
:103cc4002403000028030000000000002c0300006f
:103cd400300300001400000092d90000000000002e
:103ce400000000000000000000000000313200006d
:103cf400372e0000302e0000302e0000310000006e
:103d0400494400004c45000000000000000400008d
:103d1400a3000000000000000101000001000000f9
:043d24000600000095
:020000040000fa
:103d28000200fa00004f780000902200104078004e
:103d38009e4f50001d003200009022001040780075
:103d4800e24f40000b003200009022001040780043
:103d58000080fb007e00b90080007800a03b2200b4
:103d680000804000014f22000e0009003118780041
:103d7800e001b100009022001e487800e0cfb300b7
:103d88009e4f1000090032001e80fb007e00b90023
:103d980080007800a03b220000804000014f2200f4
:103da8000e000900b0187800e001b1000080fa00a8
:103db800000006000000fa001090220090407800f1
:103dc800009022001040780080cf50002900320077
:103dd8001090220010407800e24f40001800320096
:103de800c04822000001780010902200104078009e
:103df8000080fb007e00b900fc004000a03b2200d0
:103e08000080400090427800109022001040780016
:103e18000080fb007e00b90080007800a03b2200f3
:103e2800008040009000780080fd2f000080400056
:103e38008402200013c0b300854078004d110700ac
:103e480000902200904078001090220001487800ed
:103e5800c0502200904178008127810080fd2f000a
:103e680000814000c04822008402200011c0b30035
:103e7800401107000080fa00000006000c00fa005c
:103e8800a0952100000f7800104881000000e00094
:103e980008003a00f083020000000000800078006b
:103ea800f07f2000808060000040200000804000fb
:103eb80010488900a03b220070288900404b22004e
:103ec800c20320008000eb009603020000000000ff
:103ed8000040eb00204f98000040eb00304f980066
:103ee8004e0037003e4890008dff07003e48900086
:103ef8000080fb006600b9008000780020d6290009
:103f08000080400090409000214798003e48900073
:103f18000080fb006600b9008080e80020d62900f8
:103f28000080400090007800410798003e489000cb
:103f38000080fb006600b900e400400020d629009c
:103f48000080400090007800310798002e409000d3
:103f58000080fb000000e000010032002e00370066
:103f68001e00780020079800ce0090003e009000c8
:103f7800008040001e004000a1022000010f400008
:103f8800607523009e0f1000fdff3e00c050220008
:103f9800ae409000014878002e0090008002b000ea
:103fa80080278900812781004e0090000080400012
:103fb8000000e80090278900912781003e009000ca
:103fc80000804000a0278900d00020003028890008
:103fd800402881000030a1004028890075ff0700b3
:103fe8003e4890000080fb006600b9008000780021
:103ff80020d629000080400090407800304b2200f5
:1040080001487800200b07003e4890000040e80077
:10401800304f980001003700ffff37003e489000fe
:10402800e64f5000afff36000080fa00000006009f
:104038001200fa00100798002107980062479800bc
:1040480043079800244f98000040eb00004f780089
:10405800990037001e40780031ff070030288100a2
:10406800ed0f500093003a0052ff0700304b22003a
:10407800904078002e48900080cf50008d003a0084
:1040880080212000802589006e4090000004e00017
:104098000a003a004e009000e02489004028810080
:1040a8000030a00040288900400020003028890006
:1040b8004e019000522889007b003700114881008a
:1040c800f03f2000808f5000040036001148810026
:1040d80080382100808f5000020036000040200008
:1040e8001048890010488100e02489000000e80099
:1040f800104889004e009000d02489007e0d0200ef
:1041080001000000f027890001288900402881006b
:104118000040a000402889006e4090000080fb000d
:10412800000f98000e099000e30f510022003200a2
:104138000e089000e30f500004003c000e099000a8
:10414800e10f510058003500040037000e089000b8
:10415800e40f500030003200530037001e0090007a
:10416800ae00900010258900212589000041eb0050
:10417800624f98006e409000e24f500002003a00f3
:1041880010c0b300604f9800712581006e499000ff
:104198000280fb00610060004201dd00b0ff2f00db
:1041a8008080600082807000712589000000eb002b
:1041b800302889003c0037000e80e800900090000d
:1041c8000e80e80010007800808040004e009000cb
:1041d80080804000e0248100008068005028890029
:1041e8001e009000ae00900010258900212589004e
:1041f8008040eb00204b220001487800d0032000cb
:10420800010020006024890071248900200020001a
:1042180030288900240037001e009000ae0090006e
:1042280080007800214090000081fb003140900020
:104238000080fb004800dd000200700000017800eb
:104248001e009000ae0090009080fb00104090008f
:104258000080fb004800dd00010070008000410084
:104268004e00900080804000e024810000806800bb
:10427800502889001e009000ae0090008000780051
:10428800204a22000900090031587800a000b10036
:10429800a100b100500020003028890011c0b300ef
:1042a80020c0b300ba0607001e80fb006007980014
:1042b800060037001e4fe80062c0b3009e4f110091
:1042c80064ff3600e00f2000600798006e00900041
:1042d8000080fa00000006000400fa00004f780091
:1042e8001e4078008efe0700402881000100210052
:1042f800010060000000e000060032004028810054
:1043080000c0a10040288900100020001007980074
:10431800020037000000eb00100798001e00900014
:104328000080fa00000006000400fa00004f780040
:104338001e4078007afe0700302881008000eb00dc
:1043480011079800e70f500002003a001000200003
:10435800100798001e0090000080fa000000060078
:104368000400fa00004f78001e4078006cfe070039
:10437800d0278100e02789003028810010079800a5
:104388001e009000e50f50001f0032001e00900034
:10439800e50f50000a003e001e009000e10f50009b
:1043a800150032001e009000e10f50001600390081
:1043b8001e009000e30f500032003e00120037004c
:1043c8001e009000eb0f50001e0032001e009000ef
:1043d800eb0f500004003e001e009000e70f500055
:1043e80028003e000a0037001e009000ee0f500023
:1043f8002100320023003700f2950200000000007f
:10440800210a0700230037001f0a07002100370090
:1044180011c0b30010c1b3005d060700f02481008d
:104428000000e00004003200b1278100c0248100b0
:10443800808f5000f6ff3a00800020003028890065
:104448001400370011c0b30010c1b30050060700b4
:10445800f02481000000e00004003200b127810050
:10446800c0248100808f5000f6ff3a00c000200071
:104478003028890007003700d00020003028890044
:10448800040037008040eb0040c1b300400607003d
:10449800fd0907000080fa00000006000200fa008b
:1044a800004f78001e4078001dfe0700402881005c
:1044b8000030a100402889001e407800a8ff0700ae
:1044c8000080fa00000006000200fa00004f7800a1
:1044d8001e40780012fe070036fe0700e03a220070
:1044e800214a22000900090031587800d0248100af
:1044f800c01d8900e03a22000080fa000000060092
:104508000200fa00004f78001e40780004fe070001
:1045180028fe0700b1278100c0248100808f500049
:104528000300320011c0b30000c1b3001806070031
:104538000080fa00000006000600fa0020479800f4
:104548002e409000f6fd070030288100004f7800cb
:1045580070c0b3009e4f100006003200b0c0b30018
:104568009e4f1000030032000000eb002007980067
:1045780013003700b1278100c0278100808f5000c9
:104588000a003900912781008027810000815000ae
:10459800c1278100b0278100008050000000410041
:1045a8000000e9002007980005003700c0278100b7
:1045b800b1278100010050000000e90020079800a1
:1045c8002e0090000080fa00000006000600fa00a5
:1045d80020479800314798002e409000d0fd0700f2
:1045e8002e409000d4ff0700000f78001e00e00066
:1045f80003003a000000eb00200798003a0037005b
:10460800100020009e0f100002003a002e4090007b
:10461800bbff070040288100011020000100600056
:104628000000e0000b003a009127810080278100fc
:10463800008050000000d1009e0f50000500390096
:104648002e409000aeff0700402881000080a000a7
:10465800402889006300470000017800c05022000c
:1046680090407800b02781001400200013c0b300e8
:10467800400f0700b02781000000e800b02789003c
:10468800b127810090278100808f500002003900f7
:1046980080278100b0278900100020009e0f10009d
:1046a80003003a002e40900095ff07000c003700e9
:1046b8004028810001022000010060000000e000a5
:1046c80007003a00402881000050a00040288900d7
:1046d8008a0d0200010000006900400010288900ce
:1046e80010002000200798002e0090000080fa009b
:1046f800000006000e00fa00604798004107980085
:10470800520798000000eb00000f78006e40900000
:1047180083fd07006e40900087ff07001007980090
:104728001e0090000000e00005003a006e40900076
:1047380073ff07000000eb00600798005500370082
:104748001e009000200798009e0090005e009000d8
:10475800808f5000020036005e009000200798000d
:104768004028810001102000010060000000e000e6
:104778000c003a00912781008027810000805000ba
:104788008000d1001e009000808f50000500390085
:104798006e4090005aff0700402881000080a0006a
:1047a80040288900b12781002e00900080804000b9
:1047b80090278100808f50001400390091278100d4
:1047c800b0278100008f50004e0090000001780053
:1047d800c050220090407800b02781001e02780067
:1047e80013c0b300e30e07009e0078004e0090004f
:1047f80001004000400798002e0090001e00500065
:104808002007980080278100b02789004e0090007b
:1048180000017800c050220090407800b027810045
:104828002e02900013c0b300d20e0700b1278100fa
:104838002e00900000804000b02789009e00900064
:104848005e009000808f500003003e006e40900094
:104858002bff07000c0037004028810001022000d0
:10486800010060000000e00007003a0040288100d5
:104878000050a000402889008a0d020001000000b5
:1048880069004000102889002e0090001e0040009a
:10489800600798006e0090000080fa000000060093
:1048a8000400fa00004f7800110798001e009000dd
:1048b800ec03020000000000000178009e00900058
:1048c8001e4078008bff0700800078001e009000d3
:1048d800008040000080fa00000006000600fa0090
:1048e800404798004e4090000dfd07009127810039
:1048f8008027810000805000000fe9004e409000a2
:104908000dff0700100798001e0090001e00100001
:104918000080fa00000006000200fa00004f78004c
:104928001e4078000b0007000000e000070032007e
:104938001e407800fafc0700d0278100e027890094
:1049480011c0b30000c1b300110507000080fa00d0
:10495800000006000400fa00004f78001e407800ae
:10496800effc0700d1278100e0278100808f5000ed
:1049780005003900d1278100e027810080805000a0
:104988001107980009003700a1278100e02781005e
:1049980000815000d12781009027810000805000bd
:1049a800000041000000e800100798001e00900079
:1049b8000080fa00000006000800fa00204798006e
:1049c800210798002e409000e2ff0700000f7800b2
:1049d8001e00e00003003a000000eb0030079800da
:1049e8002b0037002e409000cdfc07002e009000d1
:1049f8000000e00008003200c0502200904078001b
:104a0800e22781002e0090001400200081417800e8
:104a180011c0b300570e0700e02781000000e8002e
:104a2800e0278900e1278100a0278100808f5000be
:104a38000200360090278100e0278900100020003e
:104a48009e0f100004003a004028810000a0a0003a
:104a5800402889000c00370040288100010220000e
:104a6800010060000000e00007003a0040288100d3
:104a78000050a000402889008a0d020001000000b3
:104a88000003b000102889001000200030079800ab
:104a98003e0090000080fa00000006000c00fa00ba
:104aa8004047980031079800420798000000eb0043
:104ab800000f78004e409000a6ff070010079800ee
:104ac8001e0090000000e00003003a000000eb0028
:104ad80050079800500037004e40900090fc0700a7
:104ae800ce0090001e009000808f5000020036001b
:104af8001e00900040079800e12781004e009000ba
:104b080080804000a0278100808f50001800360068
:104b1800a1278100e027810000805000000fe800f5
:104b28003e0090000000e0000c003200c05022005f
:104b380090407800e22781003e0090001e02780035
:104b48008141780011c0b3000a0e07009e0078006a
:104b58003e00900001004000300798004e00900091
:104b68001e0050004007980090278100e027890028
:104b78003e0090000000e00008003200c050220013
:104b880090407800e22781003e0090004e0290009d
:104b98008141780011c0b300f60d0700e1278100bc
:104ba8004e00900000804000e02789004e009000f1
:104bb8001e004000400798009e0090004e009000a4
:104bc800808050004e009000808f500004003e000e
:104bd8004028810000a0a000402889000c00370070
:104be8004028810001022000010060000000e00070
:104bf80007003a00402881000050a00040288900a2
:104c08008a0d0200010000000003b000102889008e
:104c18004e009000500798005e0090000080fa0057
:104c2800000006000600fa00404798004e40900039
:104c38003bfc0700a127810090278100008f5000ce
:104c48004e40900043ff0700100798001e00900098
:104c58001e0010000080fa00000006001000fa0094
:104c6800604798004107980052079800630798002a
:104c78005e0090000000e00003003a000000eb0036
:104c880070079800440037006e40900024fc07002d
:104c98006e4090002fff070010079800ee0090006c
:104ca8005e009000808040001e009000808f5000c1
:104cb800040036001e009000ee0090000100500035
:104cc80050079800e12781006e00900000804000a6
:104cd80020079800a12781002e009000808f5000a7
:104ce8000700310091278100a027810080805000b3
:104cf8002e009000008040000000e9002007980086
:104d0800a12781002e00900000805000000fe800cd
:104d18005e0090009e0f500009003e00c050220027
:104d2800904078004e0090005e029000814178002b
:104d38002e01900011c0b3008e0d0700140037003b
:104d4800c0502200904078004e0090001e0278006b
:104d5800814178002e01900011c0b300850d070035
:104d68005e0090009e005000c05022001041780064
:104d7800952781004e0090001e0040000102780037
:104d8800824178000501780011c0b300790d070051
:104d98005e009000700798007e0090000080fa0086
:104da800000006000600fa00204798002107980036
:104db800ae019000120020008e0078002e40900076
:104dc800a6ff07001e4078000080fb000080fa0064
:104dd800000006004000fa0020779800211f980084
:104de800321f9800431f9800541f9800651f9800b1
:104df8003e1890000000e00003003a000000eb00bd
:104e0800701f9800320137002e709000c4fb070015
:104e18002e709000cffe0700800078004e1890009a
:104e28000080500070079800fe0090003e18900027
:104e3800808f5000030031008080eb00711f9800c4
:104e4800230137005e1890000000e00006003200e1
:104e5800fe0090005e189000808f5000020036001f
:104e68005e18900070079800e12781004e189000a6
:104e78000080400050079800a12781005e00900044
:104e8800808f50000700310091278100a027810002
:104e9800808050005e009000008040000000e90023
:104ea80050079800de009000010f9800a1278100ac
:104eb8005e009000008050000000e8006007980045
:104ec8004e18900050079800be18900041079800af
:104ed8002e189000300798002e1890009040780007
:104ee800314798002e1890000000e800201f980015
:104ef8000000eb00000f78006e1890000000e00042
:104f08000c003200be40900000c6b30080cf5000b5
:104f180008003600be409000a0c7b30080cf500004
:104f280004003e003e40900001ceb3000140400026
:104f38003047980000c2b300204798002e409000e8
:104f48008080fb006e009000808f500002003600c9
:104f58006e009000204798002e4090008080fb0053
:104f68007e009000808f5000020036007e00900086
:104f7800204798002e4090008080fb00c0502200ff
:104f880010417800720047000102780082417800e1
:104f98000e09900011c0b300f60c07002e409000d7
:104fa8008080fb000e08900001004000000f980070
:104fb8002e4090008080fb006e00900001005000a1
:104fc800600798006e0090000000e00004003a00be
:104fd80090278100000f98000080eb006007980080
:104fe8006e1890000000e0006f0032000040eb00f7
:104ff80040479800670037004e4090008080fb00d3
:1050080072004700008040009040780000c6b3005e
:1050180080cf5000160036004e4090008080fb0084
:10502800720047000080400090407800a0c7b3009d
:1050380080cf50000e003e004e4090000081fb00e3
:105048004e4090008080fb007200470000804000c6
:10505800104078008040780000ceb30000c04000c7
:105068008040780072004700000041000148780045
:105078004e4090008080fb00720047000080400096
:10508800904078003e40900080cf500024003a00c5
:105098003e1890000000e900301f98003e1890006c
:1050a8000000e00009003a00de0090004e00900089
:1050b800808050004e4090000080fb00008040003f
:1050c8000000e800701f9800810037002e1890003b
:1050d80090407800314798002e1890000000e800b2
:1050e800201f980010002000000f7800be4090009c
:1050f80000c6b30080cf500023003600be409000a9
:10510800a0c7b30080cf50001f003e003e40900073
:1051180001ceb30001404000304798001a00370024
:105128004e009000301f98001e00e000160032006c
:10513800be009000211f98002e1890009040780023
:10514800314798002e1890000000e800201f9800b2
:10515800be40900000c6b30080cf50000800360063
:10516800be409000a0c7b30080cf500004003e00ae
:105178003e40900001ceb300014040003047980007
:105188000000eb00000f78004e4090000040e8005f
:1051980040479800ce4090002e40900080cf5000ad
:1051a80095ff3900380037000040eb004047980071
:1051b800310037004e4090008080fb0072004700ad
:1051c80000804000904078003e40900080cf500022
:1051d80018003a003e1890000000e900301f9800bf
:1051e8003e1890000000e00009003a00de00900040
:1051f8004e009000808050004e4090000080fb00e0
:10520800008040000000e800701f98003000370060
:105218002e18900090407800314798002e18900082
:105228000000e800201f980010002000000f780000
:105238000e0037004e009000301f98001e00e0005e
:105248000a003200be009000211f98002e1890001e
:1052580090407800314798002e1890000000e80030
:10526800201f98000000eb00000f78004e409000cf
:105278000040e80040479800ce4090002e40900043
:1052880080cf5000cbff39002e4090008080fb007b
:105298007e0090000100500070079800fe0090000a
:1052a8003e189000808f5000030031000080eb0012
:1052b800701f9800060037002e4090008080fb0089
:1052c8005e009000010040005007980019ff370069
:1052d8007e1890000080fa00000006000800fa001e
:1052e800004f78001147980012079800230798008c
:1052f800340798008e00e800be0290002e0290004d
:105308009e019000120020001e407800b1fe0700a8
:105318000080fa00000006001400fa00881f7800d8
:105328000040eb00004f9800010237000e48900043
:105338007bfa07000040eb00204798000000eb00d4
:10534800300798000000eb002007980041288100f2
:1053580000202000008060000000e00005003a0006
:105368004028810001402000010060000000e000aa
:105378000b003200d07c0200000000000000e000ba
:105388000700320000c1b300204798004028810080
:105398004a00de00614060000080fb003007980092
:1053a8004028810001022000010060000000e000a8
:1053b80008003200182881008a0d02000100000050
:1053c800000054000000e00002003c0000c1b300ef
:1053d8002047980040288100010420000100600057
:1053e8000000e00008003200282881008a0d020031
:1053f80001000000000054000000e00002003c0032
:1054080000c1b3002047980030288100eb0f5000fe
:105418000a003a00282881008a0d020001000000d5
:10542800000054000000e00004003c0010c1b3007c
:1054380020479800c00020003028890030288100cb
:10544800e40f500056003a000000eb00000f78000f
:10545800500037001e0078007400b900f0004000ca
:10546800404b220000804000100078000000e0005f
:105478004b0032001e0078007400b900f0004000b4
:10548800404b2200008040009000780050288100a6
:10549800808f50003e003a0046fa07001e00780050
:1054a8007400b90080007800404b22000080400062
:1054b800214a220009000900b0587800a000b10074
:1054c8001e0078007400b900ea004000404b22003a
:1054d8000080400010007800d02489001e00780069
:1054e8007400b900ec004000404b220000804000ee
:1054f8001000be0061004000e0804800a024890040
:10550800b124890021258100102581008080400078
:10551800d024810080804000e02481000080680061
:105528005028890020c1b30020479800600020005f
:1055380030288900220020001e0051007400b900a4
:10554800000178001e0078007400b900800078001f
:10555800804c220000804000800278001e00780005
:105568007400b90080007800404b220000804000a1
:105578000202780013c0b3000501780011c0b3001f
:105588007c0b07000000eb0060278900040037004f
:105598001e0fe800230020009e8f1100adff36008b
:1055a8002e4090000004e0000a0032000040eb00aa
:1055b800604f98003e0090000000e00002003a00b2
:1055c80011c0b300614f9800ee4890002e40900043
:1055d800ef01070040288100700060000000e00033
:1055e8002c003a0030288100e70f50004d013a00a6
:1055f8007e0d0200010000000001be00f0278100be
:10560800012881000000510081805900e00f5000fe
:10561800e08f580043013500402881006700600092
:10562800e60f50000e003a00402881004300de00db
:1056380061406000204798000e48900048fb070032
:105648000e48900046fb07002e4090000004e00042
:1056580034013a00e0002000302889003101370089
:10566800d4f9070021c0b30000c1b300c801070086
:105678007e0d0200010000008296280093002000a1
:105688000000410081804900f02789000128890035
:10569800240137007e0d0200010000000001be0059
:1056a800f027810001288100000051008180590005
:1056b800e00f5000e08f58001a013500bdf90700cf
:1056c800302881006101b800020f9800130f98007c
:1056d800c0002000010020000e0990009e099000e3
:1056e800800f5100818f5900d8003e000e089000ad
:1056f8009e089000006001000c0037002100370070
:105708004b00370053003700d000370079003700ce
:105718007d003700910037009e003700ab0037004e
:10572800af0037008d003700bb003700cc95020072
:10573800000000000000e000c4003200100020005b
:105748003028890070258100640060000000e000b6
:1057580006003200102581002125810011c0b30008
:105768002896020000000000b800370010258100cc
:105778002125810011c0b300289602000000000016
:10578800b20037006a0047006a9602000000000075
:105798000000e000ad003200f295020000000000b9
:1057a8000000e000160032005e009000ee0090005d
:1057b8001025890021258900200020003028890033
:1057c800212581001025810080804000d02481009f
:1057d80080804000e0248100008068005028890013
:1057e8008040eb00204b220001487800d0032000c5
:1057f800010020006024890071248900930037008b
:105808007e0d0200010000000001be008096280005
:10581800910020000200400083804800f0278900a2
:10582800012889000000eb00302889008700370034
:105838008a0d02000100000010288900204a220079
:1058480052d30200000000003000200030288900f8
:105858007e003700614a2200204a220036d4020026
:10586800000000000000e0001b003a008a0d020062
:10587800010000008000780010288100008150009d
:105888006024810071248100800f51006f00360070
:10589800204b220010407800e54f50000b003e00de
:1058a800204b2200104078008040e800204b220066
:1058b80001487800602481007124810000004000c4
:1058c800818048006024890071248900200020001c
:1058d800302889005d00370020c0b30020479800b9
:1058e8000000eb00300798005000200030288900a5
:1058f8005600370020c0b300204798001000200051
:105908003007980051003700204b220010407800e3
:10591800e14f500005003e0020c1b3002047980029
:105928001000200030079800480037004028810008
:10593800680060000000e0000500320040c1b300cc
:105948002047980010002000200798003f003700eb
:1059580020c0b300204798003c003700204b2200ad
:1059680010407800e44f500005003e0000c1b3002d
:1059780020479800100020003007980033003700b7
:10598800800020003028890010c1b300204798000b
:105998002e003700204b220010407800e44f5000c2
:1059a80005003e0010c1b3002047980010002000f9
:1059b800300798002500370040c1b3002047980001
:1059c80010002000200798002000370040c1b300d5
:1059d8002047980010002000200798001b0037007f
:1059e800204b220010407800e44f500005003e0094
:1059f80000c1b3002047980010002000300798002d
:105a08001200370040c1b300204798001000200062
:105a1800200798000d003700204b22001040780026
:105a2800e44f500005003e0010c1b3002047980025
:105a380010002000300798000400370040c1b30070
:105a48002047980010002000200798002e40900062
:105a58000004e0002f0032003e0090000000e0004b
:105a680029003200204b2200104078008040e800d6
:105a7800204b2200014878006024810071248100b5
:105a8800000040008180480060248900712489005a
